{
  "_format": "hh-sol-artifact-1",
  "contractName": "ATNToken",
  "sourceName": "contracts/ATNToken.sol",
  "abi": [
    {
      "inputs": [
        {
          "internalType": "uint256",
          "name": "initialSupply",
          "type": "uint256"
        }
      ],
      "stateMutability": "nonpayable",
      "type": "constructor"
    },
    {
      "anonymous": false,
      "inputs": [
        {
          "indexed": true,
          "internalType": "address",
          "name": "owner",
          "type": "address"
        },
        {
          "indexed": true,
          "internalType": "address",
          "name": "spender",
          "type": "address"
        },
        {
          "indexed": false,
          "internalType": "uint256",
          "name": "value",
          "type": "uint256"
        }
      ],
      "name": "Approval",
      "type": "event"
    },
    {
      "anonymous": false,
      "inputs": [
        {
          "indexed": true,
          "internalType": "address",
          "name": "from",
          "type": "address"
        },
        {
          "indexed": true,
          "internalType": "address",
          "name": "to",
          "type": "address"
        },
        {
          "indexed": false,
          "internalType": "uint256",
          "name": "value",
          "type": "uint256"
        }
      ],
      "name": "Transfer",
      "type": "event"
    },
    {
      "inputs": [
        {
          "internalType": "address",
          "name": "owner",
          "type": "address"
        },
        {
          "internalType": "address",
          "name": "spender",
          "type": "address"
        }
      ],
      "name": "allowance",
      "outputs": [
        {
          "internalType": "uint256",
          "name": "",
          "type": "uint256"
        }
      ],
      "stateMutability": "view",
      "type": "function"
    },
    {
      "inputs": [
        {
          "internalType": "address",
          "name": "spender",
          "type": "address"
        },
        {
          "internalType": "uint256",
          "name": "amount",
          "type": "uint256"
        }
      ],
      "name": "approve",
      "outputs": [
        {
          "internalType": "bool",
          "name": "",
          "type": "bool"
        }
      ],
      "stateMutability": "nonpayable",
      "type": "function"
    },
    {
      "inputs": [
        {
          "internalType": "address",
          "name": "account",
          "type": "address"
        }
      ],
      "name": "balanceOf",
      "outputs": [
        {
          "internalType": "uint256",
          "name": "",
          "type": "uint256"
        }
      ],
      "stateMutability": "view",
      "type": "function"
    },
    {
      "inputs": [
        {
          "internalType": "uint256",
          "name": "amount",
          "type": "uint256"
        }
      ],
      "name": "burn",
      "outputs": [],
      "stateMutability": "nonpayable",
      "type": "function"
    },
    {
      "inputs": [
        {
          "internalType": "address",
          "name": "account",
          "type": "address"
        },
        {
          "internalType": "uint256",
          "name": "amount",
          "type": "uint256"
        }
      ],
      "name": "burnFrom",
      "outputs": [],
      "stateMutability": "nonpayable",
      "type": "function"
    },
    {
      "inputs": [],
      "name": "decimals",
      "outputs": [
        {
          "internalType": "uint8",
          "name": "",
          "type": "uint8"
        }
      ],
      "stateMutability": "view",
      "type": "function"
    },
    {
      "inputs": [
        {
          "internalType": "address",
          "name": "spender",
          "type": "address"
        },
        {
          "internalType": "uint256",
          "name": "subtractedValue",
          "type": "uint256"
        }
      ],
      "name": "decreaseAllowance",
      "outputs": [
        {
          "internalType": "bool",
          "name": "",
          "type": "bool"
        }
      ],
      "stateMutability": "nonpayable",
      "type": "function"
    },
    {
      "inputs": [
        {
          "internalType": "address",
          "name": "spender",
          "type": "address"
        },
        {
          "internalType": "uint256",
          "name": "addedValue",
          "type": "uint256"
        }
      ],
      "name": "increaseAllowance",
      "outputs": [
        {
          "internalType": "bool",
          "name": "",
          "type": "bool"
        }
      ],
      "stateMutability": "nonpayable",
      "type": "function"
    },
    {
      "inputs": [],
      "name": "name",
      "outputs": [
        {
          "internalType": "string",
          "name": "",
          "type": "string"
        }
      ],
      "stateMutability": "view",
      "type": "function"
    },
    {
      "inputs": [],
      "name": "symbol",
      "outputs": [
        {
          "internalType": "string",
          "name": "",
          "type": "string"
        }
      ],
      "stateMutability": "view",
      "type": "function"
    },
    {
      "inputs": [],
      "name": "totalSupply",
      "outputs": [
        {
          "internalType": "uint256",
          "name": "",
          "type": "uint256"
        }
      ],
      "stateMutability": "view",
      "type": "function"
    },
    {
      "inputs": [
        {
          "internalType": "address",
          "name": "to",
          "type": "address"
        },
        {
          "internalType": "uint256",
          "name": "amount",
          "type": "uint256"
        }
      ],
      "name": "transfer",
      "outputs": [
        {
          "internalType": "bool",
          "name": "",
          "type": "bool"
        }
      ],
      "stateMutability": "nonpayable",
      "type": "function"
    },
    {
      "inputs": [
        {
          "internalType": "address",
          "name": "from",
          "type": "address"
        },
        {
          "internalType": "address",
          "name": "to",
          "type": "address"
        },
        {
          "internalType": "uint256",
          "name": "amount",
          "type": "uint256"
        }
      ],
      "name": "transferFrom",
      "outputs": [
        {
          "internalType": "bool",
          "name": "",
          "type": "bool"
        }
      ],
      "stateMutability": "nonpayable",
      "type": "function"
    },
    {
      "inputs": [],
      "name": "waited",
      "outputs": [],
      "stateMutability": "view",
      "type": "function"
    }
  ],
  "bytecode": "0x60806040523480156200001157600080fd5b5060405162001df438038062001df4833981810160405281019062000037919062000451565b6040518060400160405280600b81526020017f416c6c546861744e6f64650000000000000000000000000000000000000000008152506040518060400160405280600381526020017f41544e00000000000000000000000000000000000000000000000000000000008152508160039080519060200190620000bb9291906200038a565b508060049080519060200190620000d49291906200038a565b505050620001226040518060400160405280601281526020017f596f752063616e206465627567206865726500000000000000000000000000008152506200013b60201b620006961760201c565b620001343382620001de60201b60201c565b50620006ec565b620001db8160405160240162000152919062000511565b6040516020818303038152906040527f41304fac000000000000000000000000000000000000000000000000000000007bffffffffffffffffffffffffffffffffffffffffffffffffffffffff19166020820180517bffffffffffffffffffffffffffffffffffffffffffffffffffffffff83818316178352505050506200035760201b60201c565b50565b600073ffffffffffffffffffffffffffffffffffffffff168273ffffffffffffffffffffffffffffffffffffffff16141562000251576040517f08c379a0000000000000000000000000000000000000000000000000000000008152600401620002489062000535565b60405180910390fd5b62000265600083836200038060201b60201c565b806002600082825462000279919062000590565b92505081905550806000808473ffffffffffffffffffffffffffffffffffffffff1673ffffffffffffffffffffffffffffffffffffffff1681526020019081526020016000206000828254620002d0919062000590565b925050819055508173ffffffffffffffffffffffffffffffffffffffff16600073ffffffffffffffffffffffffffffffffffffffff167fddf252ad1be2c89b69c2b068fc378daa952ba7f163c4a11628f55a4df523b3ef8360405162000337919062000557565b60405180910390a362000353600083836200038560201b60201c565b5050565b60008151905060006a636f6e736f6c652e6c6f679050602083016000808483855afa5050505050565b505050565b505050565b82805462000398906200062d565b90600052602060002090601f016020900481019282620003bc576000855562000408565b82601f10620003d757805160ff191683800117855562000408565b8280016001018555821562000408579182015b8281111562000407578251825591602001919060010190620003ea565b5b5090506200041791906200041b565b5090565b5b80821115620004365760008160009055506001016200041c565b5090565b6000815190506200044b81620006d2565b92915050565b6000602082840312156200046457600080fd5b600062000474848285016200043a565b91505092915050565b60006200048a8262000574565b6200049681856200057f565b9350620004a8818560208601620005f7565b620004b381620006c1565b840191505092915050565b6000620004cd601f836200057f565b91507f45524332303a206d696e7420746f20746865207a65726f2061646472657373006000830152602082019050919050565b6200050b81620005ed565b82525050565b600060208201905081810360008301526200052d81846200047d565b905092915050565b600060208201905081810360008301526200055081620004be565b9050919050565b60006020820190506200056e600083018462000500565b92915050565b600081519050919050565b600082825260208201905092915050565b60006200059d82620005ed565b9150620005aa83620005ed565b9250827fffffffffffffffffffffffffffffffffffffffffffffffffffffffffffffffff03821115620005e257620005e162000663565b5b828201905092915050565b6000819050919050565b60005b8381101562000617578082015181840152602081019050620005fa565b8381111562000627576000848401525b50505050565b600060028204905060018216806200064657607f821691505b602082108114156200065d576200065c62000692565b5b50919050565b7f4e487b7100000000000000000000000000000000000000000000000000000000600052601160045260246000fd5b7f4e487b7100000000000000000000000000000000000000000000000000000000600052602260045260246000fd5b6000601f19601f8301169050919050565b620006dd81620005ed565b8114620006e957600080fd5b50565b6116f880620006fc6000396000f3fe608060405234801561001057600080fd5b50600436106100ea5760003560e01c806370a082311161008c578063a457c2d711610066578063a457c2d71461025f578063a9059cbb1461028f578063cbb6ba45146102bf578063dd62ed3e146102c9576100ea565b806370a08231146101f557806379cc67901461022557806395d89b4114610241576100ea565b806323b872dd116100c857806323b872dd1461015b578063313ce5671461018b57806339509351146101a957806342966c68146101d9576100ea565b806306fdde03146100ef578063095ea7b31461010d57806318160ddd1461013d575b600080fd5b6100f76102f9565b604051610104919061134d565b60405180910390f35b61012760048036038101906101229190610ef7565b61038b565b6040516101349190611332565b60405180910390f35b6101456103ae565b604051610152919061148f565b60405180910390f35b61017560048036038101906101709190610ea8565b6103b8565b6040516101829190611332565b60405180910390f35b6101936103e7565b6040516101a091906114aa565b60405180910390f35b6101c360048036038101906101be9190610ef7565b6103f0565b6040516101d09190611332565b60405180910390f35b6101f360048036038101906101ee9190610f33565b610427565b005b61020f600480360381019061020a9190610e43565b61043b565b60405161021c919061148f565b60405180910390f35b61023f600480360381019061023a9190610ef7565b610483565b005b6102496104a3565b604051610256919061134d565b60405180910390f35b61027960048036038101906102749190610ef7565b610535565b6040516102869190611332565b60405180910390f35b6102a960048036038101906102a49190610ef7565b6105ac565b6040516102b69190611332565b60405180910390f35b6102c76105cf565b005b6102e360048036038101906102de9190610e6c565b61060f565b6040516102f0919061148f565b60405180910390f35b606060038054610308906115f3565b80601f0160208091040260200160405190810160405280929190818152602001828054610334906115f3565b80156103815780601f1061035657610100808354040283529160200191610381565b820191906000526020600020905b81548152906001019060200180831161036457829003601f168201915b5050505050905090565b60008061039661072f565b90506103a3818585610737565b600191505092915050565b6000600254905090565b6000806103c361072f565b90506103d0858285610902565b6103db85858561098e565b60019150509392505050565b60006012905090565b6000806103fb61072f565b905061041c81858561040d858961060f565b61041791906114e1565b610737565b600191505092915050565b61043861043261072f565b82610c0f565b50565b60008060008373ffffffffffffffffffffffffffffffffffffffff1673ffffffffffffffffffffffffffffffffffffffff168152602001908152602001600020549050919050565b6104958261048f61072f565b83610902565b61049f8282610c0f565b5050565b6060600480546104b2906115f3565b80601f01602080910402602001604051908101604052809291908181526020018280546104de906115f3565b801561052b5780601f106105005761010080835404028352916020019161052b565b820191906000526020600020905b81548152906001019060200180831161050e57829003601f168201915b5050505050905090565b60008061054061072f565b9050600061054e828661060f565b905083811015610593576040517f08c379a000000000000000000000000000000000000000000000000000000000815260040161058a9061146f565b60405180910390fd5b6105a08286868403610737565b60019250505092915050565b6000806105b761072f565b90506105c481858561098e565b600191505092915050565b61060d6040518060400160405280600481526020017f7761697400000000000000000000000000000000000000000000000000000000815250610696565b565b6000600160008473ffffffffffffffffffffffffffffffffffffffff1673ffffffffffffffffffffffffffffffffffffffff16815260200190815260200160002060008373ffffffffffffffffffffffffffffffffffffffff1673ffffffffffffffffffffffffffffffffffffffff16815260200190815260200160002054905092915050565b61072c816040516024016106aa919061134d565b6040516020818303038152906040527f41304fac000000000000000000000000000000000000000000000000000000007bffffffffffffffffffffffffffffffffffffffffffffffffffffffff19166020820180517bffffffffffffffffffffffffffffffffffffffffffffffffffffffff8381831617835250505050610de6565b50565b600033905090565b600073ffffffffffffffffffffffffffffffffffffffff168373ffffffffffffffffffffffffffffffffffffffff1614156107a7576040517f08c379a000000000000000000000000000000000000000000000000000000000815260040161079e9061144f565b60405180910390fd5b600073ffffffffffffffffffffffffffffffffffffffff168273ffffffffffffffffffffffffffffffffffffffff161415610817576040517f08c379a000000000000000000000000000000000000000000000000000000000815260040161080e906113af565b60405180910390fd5b80600160008573ffffffffffffffffffffffffffffffffffffffff1673ffffffffffffffffffffffffffffffffffffffff16815260200190815260200160002060008473ffffffffffffffffffffffffffffffffffffffff1673ffffffffffffffffffffffffffffffffffffffff168152602001908152602001600020819055508173ffffffffffffffffffffffffffffffffffffffff168373ffffffffffffffffffffffffffffffffffffffff167f8c5be1e5ebec7d5bd14f71427d1e84f3dd0314c0f7b2291e5b200ac8c7c3b925836040516108f5919061148f565b60405180910390a3505050565b600061090e848461060f565b90507fffffffffffffffffffffffffffffffffffffffffffffffffffffffffffffffff8114610988578181101561097a576040517f08c379a0000000000000000000000000000000000000000000000000000000008152600401610971906113cf565b60405180910390fd5b6109878484848403610737565b5b50505050565b600073ffffffffffffffffffffffffffffffffffffffff168373ffffffffffffffffffffffffffffffffffffffff1614156109fe576040517f08c379a00000000000000000000000000000000000000000000000000000000081526004016109f59061142f565b60405180910390fd5b600073ffffffffffffffffffffffffffffffffffffffff168273ffffffffffffffffffffffffffffffffffffffff161415610a6e576040517f08c379a0000000000000000000000000000000000000000000000000000000008152600401610a659061136f565b60405180910390fd5b610a79838383610e0f565b60008060008573ffffffffffffffffffffffffffffffffffffffff1673ffffffffffffffffffffffffffffffffffffffff16815260200190815260200160002054905081811015610aff576040517f08c379a0000000000000000000000000000000000000000000000000000000008152600401610af6906113ef565b60405180910390fd5b8181036000808673ffffffffffffffffffffffffffffffffffffffff1673ffffffffffffffffffffffffffffffffffffffff16815260200190815260200160002081905550816000808573ffffffffffffffffffffffffffffffffffffffff1673ffffffffffffffffffffffffffffffffffffffff1681526020019081526020016000206000828254610b9291906114e1565b925050819055508273ffffffffffffffffffffffffffffffffffffffff168473ffffffffffffffffffffffffffffffffffffffff167fddf252ad1be2c89b69c2b068fc378daa952ba7f163c4a11628f55a4df523b3ef84604051610bf6919061148f565b60405180910390a3610c09848484610e14565b50505050565b600073ffffffffffffffffffffffffffffffffffffffff168273ffffffffffffffffffffffffffffffffffffffff161415610c7f576040517f08c379a0000000000000000000000000000000000000000000000000000000008152600401610c769061140f565b60405180910390fd5b610c8b82600083610e0f565b60008060008473ffffffffffffffffffffffffffffffffffffffff1673ffffffffffffffffffffffffffffffffffffffff16815260200190815260200160002054905081811015610d11576040517f08c379a0000000000000000000000000000000000000000000000000000000008152600401610d089061138f565b60405180910390fd5b8181036000808573ffffffffffffffffffffffffffffffffffffffff1673ffffffffffffffffffffffffffffffffffffffff168152602001908152602001600020819055508160026000828254610d689190611537565b92505081905550600073ffffffffffffffffffffffffffffffffffffffff168373ffffffffffffffffffffffffffffffffffffffff167fddf252ad1be2c89b69c2b068fc378daa952ba7f163c4a11628f55a4df523b3ef84604051610dcd919061148f565b60405180910390a3610de183600084610e14565b505050565b60008151905060006a636f6e736f6c652e6c6f679050602083016000808483855afa5050505050565b505050565b505050565b600081359050610e2881611694565b92915050565b600081359050610e3d816116ab565b92915050565b600060208284031215610e5557600080fd5b6000610e6384828501610e19565b91505092915050565b60008060408385031215610e7f57600080fd5b6000610e8d85828601610e19565b9250506020610e9e85828601610e19565b9150509250929050565b600080600060608486031215610ebd57600080fd5b6000610ecb86828701610e19565b9350506020610edc86828701610e19565b9250506040610eed86828701610e2e565b9150509250925092565b60008060408385031215610f0a57600080fd5b6000610f1885828601610e19565b9250506020610f2985828601610e2e565b9150509250929050565b600060208284031215610f4557600080fd5b6000610f5384828501610e2e565b91505092915050565b610f658161157d565b82525050565b6000610f76826114c5565b610f8081856114d0565b9350610f908185602086016115c0565b610f9981611683565b840191505092915050565b6000610fb16023836114d0565b91507f45524332303a207472616e7366657220746f20746865207a65726f206164647260008301527f65737300000000000000000000000000000000000000000000000000000000006020830152604082019050919050565b60006110176022836114d0565b91507f45524332303a206275726e20616d6f756e7420657863656564732062616c616e60008301527f63650000000000000000000000000000000000000000000000000000000000006020830152604082019050919050565b600061107d6022836114d0565b91507f45524332303a20617070726f766520746f20746865207a65726f20616464726560008301527f73730000000000000000000000000000000000000000000000000000000000006020830152604082019050919050565b60006110e3601d836114d0565b91507f45524332303a20696e73756666696369656e7420616c6c6f77616e63650000006000830152602082019050919050565b60006111236026836114d0565b91507f45524332303a207472616e7366657220616d6f756e742065786365656473206260008301527f616c616e636500000000000000000000000000000000000000000000000000006020830152604082019050919050565b60006111896021836114d0565b91507f45524332303a206275726e2066726f6d20746865207a65726f2061646472657360008301527f73000000000000000000000000000000000000000000000000000000000000006020830152604082019050919050565b60006111ef6025836114d0565b91507f45524332303a207472616e736665722066726f6d20746865207a65726f20616460008301527f64726573730000000000000000000000000000000000000000000000000000006020830152604082019050919050565b60006112556024836114d0565b91507f45524332303a20617070726f76652066726f6d20746865207a65726f2061646460008301527f72657373000000000000000000000000000000000000000000000000000000006020830152604082019050919050565b60006112bb6025836114d0565b91507f45524332303a2064656372656173656420616c6c6f77616e63652062656c6f7760008301527f207a65726f0000000000000000000000000000000000000000000000000000006020830152604082019050919050565b61131d816115a9565b82525050565b61132c816115b3565b82525050565b60006020820190506113476000830184610f5c565b92915050565b600060208201905081810360008301526113678184610f6b565b905092915050565b6000602082019050818103600083015261138881610fa4565b9050919050565b600060208201905081810360008301526113a88161100a565b9050919050565b600060208201905081810360008301526113c881611070565b9050919050565b600060208201905081810360008301526113e8816110d6565b9050919050565b6000602082019050818103600083015261140881611116565b9050919050565b600060208201905081810360008301526114288161117c565b9050919050565b60006020820190508181036000830152611448816111e2565b9050919050565b6000602082019050818103600083015261146881611248565b9050919050565b60006020820190508181036000830152611488816112ae565b9050919050565b60006020820190506114a46000830184611314565b92915050565b60006020820190506114bf6000830184611323565b92915050565b600081519050919050565b600082825260208201905092915050565b60006114ec826115a9565b91506114f7836115a9565b9250827fffffffffffffffffffffffffffffffffffffffffffffffffffffffffffffffff0382111561152c5761152b611625565b5b828201905092915050565b6000611542826115a9565b915061154d836115a9565b9250828210156115605761155f611625565b5b828203905092915050565b600061157682611589565b9050919050565b60008115159050919050565b600073ffffffffffffffffffffffffffffffffffffffff82169050919050565b6000819050919050565b600060ff82169050919050565b60005b838110156115de5780820151818401526020810190506115c3565b838111156115ed576000848401525b50505050565b6000600282049050600182168061160b57607f821691505b6020821081141561161f5761161e611654565b5b50919050565b7f4e487b7100000000000000000000000000000000000000000000000000000000600052601160045260246000fd5b7f4e487b7100000000000000000000000000000000000000000000000000000000600052602260045260246000fd5b6000601f19601f8301169050919050565b61169d8161156b565b81146116a857600080fd5b50565b6116b4816115a9565b81146116bf57600080fd5b5056fea26469706673582212208d2ffc2a9005e60acdd7113407fa63465973cf9c74c3321acd9d49ca20ce523864736f6c63430008000033",
  "linkReferences": {},
  "deployedLinkReferences": {}
}